:1000000001308A00FC2900004B34EF3420326F3776
:100010006710E3306D10E2346537A0306E34A039DC
:10002000613767172E170D050000C8326C366F1048
:10003000C529D0193210C627D2262028C9210D057E
:1000400000014E34E9327410E4373A10A53ABF216A
:10005000A01620226F10E1363A10A53AA512A0068C
:100060000A00CC376910E43763104424D418B11067
:100070000D050001D330EE333A10B0060A000B082C
:10008000A7008B13831603178C170C1400000000B5
:1000900083120313A71B8B1703170C087F3903194F
:1000A00095280313A70003170D080313A8000317CF
:1000B0000F080313A90027080C1E5C2899002808C4
:1000C00003178D000313290803178F0003130B0870
:1000D000AA008B13831603178C170C140000000062
:1000E00083120313AA1B8B1703170C0D0E0D7F39F8
:1000F000031995280313A70003170D080313A8007D
:1001000003170F080313A90027080C1E8528990060
:10011000280803178D000313290803178F008D0A81
:1001200003198F0A03133F28031703130800323003
:100130008400831300080319AA280630F800F70189
:10014000F70BA028F80B9F287B30F700F70BA628A9
:10015000800B9D280800AB01AC01AD01AE01AF01E1
:1001600083160810831208101230B20097208316ED
:100170000810831208143130F700F70BBD28C0288F
:100180008316081408148312081CC9280030F800CC
:100190002329831608148312081CC92883160814FF
:1001A00083120818CE28B0013008043C031C08292B
:1001B000B1013108073C031C062983160814831279
:1001C000081CDD283130F700F70BE428E7288316F8
:1001D00008148312081CFF282B3030078400831377
:1001E0003108073CF8000130F700F8080319FC2833
:1001F0000310F70DF80BF828770800048000831629
:10020000081483120818FF28B10AD928B00AD42884
:100210002C082B072D072E072F02031D2129270845
:1002200084008313281883172B0880002908840072
:1002300083132A1883172D0880000130F800232922
:1002400023290030F8008A110A12382A0B08A80066
:100250008B13831603178C170C14000000008312F5
:100260000313A81B8B1703185E2903170C087F398B
:100270000313A80003170D080313A90003170F08A1
:100280000313AA0028080C1E432999002908031704
:100290008D0003132A0803178F0003130B08AB000C
:1002A0008B13831603178C170C14000000008312A5
:1002B0000313AB1B8B17A70B5E297E2903170C0DAD
:1002C0000E0D7F390313A80003170D080313A900AF
:1002D00003170F080313AA0028080C1E6D299900A4
:1002E000290803178D0003132A0803178F008D0AAE
:1002F00003198F0A03100313A70B262908002A08E5
:10030000F8012902031887292908F7009329F70122
:100310000830AB00A90DF70D2A0877020318F70083
:10032000F80DAB0B8A29080078082708A90064306B
:10033000AA007F217708A70078083030031DA7297D
:10034000A81CAF29A819AF29281A2030AA29A8115A
:1003500028122814F80778080C1EAC2999002708E1
:10036000A9000A30AA007F217708A700780830305A
:10037000031DC029A819C529281CC529281A203001
:10038000F80778080C1EC22999003030A707270803
:100390000C1EC82999000800A0012008313C031C4C
:1003A000E12983168810831288140130B200972047
:1003B00083168810831288101330B2009720A00A89
:1003C000CD298A110A12932AA0012008313C031C6E
:1003D000F92983168810831288140230B2009720FE
:1003E00083168810831288101230B2009720A00A5A
:1003F000E5298A110A12A22A03081F3983008130D5
:1004000083169900A6309800903083129800FF3030
:10041000A100A301A20183161F149F141F159F1191
:1004200007309C008313FF30860000308700831262
:10043000A100831688000430831203178D0000305A
:100440008F0003133F20153003178D0000308F00FD
:1004500003133F200230A700FA30B2009720A70B09
:100460002C2AA8012530A700AA012430A900AB2816
:10047000F80803196A2A213003178D0000308F0015
:1004800003100A300313A70026212408A7001B30FD
:10049000A8009421273003178D0000308F0003102F
:1004A0000C300313A70026212508A7001B30A80045
:1004B000942125300C1E5A2A990020300C1E5E2AE9
:1004C00099000D300C1E622A99000A300C1E662A13
:1004D0009900712A313003178D0000308F0003130B
:1004E0003F2024081E3C0318822A2508503C03188C
:1004F000822A83160610831206148316861083122E
:1005000086108A2A83160610831206108316861018
:1005100083128610831605158312261005192614DA
:10052000261C9A2ACC2921102108831687008312C1
:100530000714A82A3A3003178D0000308F000313E8
:100540003F20E42921102108831687008312071019
:100550000430A700FA30B2009720A70BAA2A232A5A
:02056000630036
:02400E007A3FF7
:00000001FF
;PIC16F877A
;CRC=590F  CREATED="02-Thg6-25 07:56"
